:100D210044656D6F20537461727465640D0A0054DB
:100D3100696D653A2000207C2000207C20414443DD
:100D410031205261773A2000202800207C20414444
:100D51004331204572726F72000D0A007772697417
:100D610074656E206E756D6265723A20006F7574E0
:100D7100206F66206C696D69740D0A005661726995
:100D810061626C652075706461746564205B6E6579
:0D0D9100772076616C75653A005D0D0A00F3
:100ED3004280590000428065000042805F0000426A
:100EE300805B00004180670042805D0000448061B8
:040EF30000000000FB
:10010000120E1012114A12115A1211231211371223
:100110000FA91211817BFF7A0D79217D0E120F221A
:1001200090805FE508F0A3E509F090805BE508F0BA
:10013000A3E509F0120C9690805BE0FEA3E0FFC3FC
:10014000E5099FFFE5089EFEC3EF9464EE9400402E
:100150001C90805BE508F0A3E509F0908067E0F56E
:1001600090E004F0E075F00384FF1210B090805F1F
:10017000E0FEA3E0FFC3E5099FFFE5089EFEC3EF95
:100180009488EE9413500302038490805FE508F096
:10019000A3E509F07BFF7A0D79307D06120F2290DE
:1001A0008055E075F00A842430FF12116A90805562
:1001B000E075F00A84E5F02430FF12116A7F3A12EC
:1001C000116A908056E075F00A842430FF12116A9B
:1001D000908056E075F00A84E5F02430FF12116A31
:1001E0007F3A12116A908057E075F00A842430FF3C
:1001F00012116A908057E075F00A84E5F02430FF10
:1002000012116A7BFF7A0D79377D03120F227B0171
:100210007A80795D7F01120E7DEF7BFF6003020320
:10022000707A0D793B7D0D120F2290805DE0FEA368
:10023000E0FF7C277D101209BCEF2430FF12116A09
:1002400090805DE0FEA3E0FF7C277D101209BC7E5C
:10025000037FE8CFCDCFCECCCE1209BCEF2430FF48
:1002600012116A90805DE0FEA3E0FF7C037DE8123E
:1002700009BC7E007F64CFCDCFCECCCE1209BCEFBF
:100280002430FF12116A90805DE0FEA3E0FF7C0045
:100290007D641209BC7E007F0ACFCDCFCECCCE12BA
:1002A00009BCEF2430FF12116A90805DE0FEA3E0EC
:1002B000FF7C007D0A1209BCED2430FF12116A9008
:1002C000805DE0FEA3E0FF7C0C7DE4120B2AE47B62
:1002D000FF7AFFF9F8120A79908061120B1E7BFFFA
:1002E0007A0D79497D02120F22E47BE87A03F9F84E
:1002F000908061E0FCA3E0FDA3E0FEA3E0FF120A12
:1003000079E47B0AFAF9F8120A79EB2430FF12112A
:100310006A7F2E12116AE47B64FAF9F8908061E03A
:10032000FCA3E0FDA3E0FEA3E0FF120A79E47B0A50
:10033000FAF9F8120A79EB2430FF12116AE47B0A09
:10034000FAF9F8908061E0FCA3E0FDA3E0FEA3E0F1
:10035000FF120A79E47B0AFAF9F8120A79EB2430E1
:10036000FF12116A7F5612116A7F2912116A8009E1
:100370007A0D794C7D0D120F227BFF7A0D795A7D13
:1003800002120F22908021E0FF908020E06F6078C1
:10039000908021E02400F582E43480F583E09080B1
:1003A00026F0908021E004541FF0908026E0FFC3E7
:0A03B00094304049EFD394395043D4
:1003BA00EF24D0FEE434FFA3F0A3CEF07B017A80D1
:1003CA007927908036E4F0A37402F07F407E207D86
:1003DA00007C001204CE7BFF7A0D795D7D10120F2E
:1003EA0022908026E0FF12116A7BFF7A0D795A7DEE
:0103FA000200
:0D03FB0080087BFF7A0D796E7D0E120F22B7
:100408007B017A807965908033E4F0A37402F07FF1
:10041800007E127D007C00120746908065E0700423
:10042800A3E06401600302013490805AE004F07094
:1004380006908059E004F07BFF7A0D797D7D1C12CF
:100448000F22908059E0FEA3E0FF7C007D64120932
:10045800BC7C007D0A1209BCED2430FF12116A90A1
:100468008059E0FEA3E0FF7C007D0A1209BC7C00F5
:100478007D0A1209BCED2430FF12116A908059E000
:10048800FEA3E0FF7C007D0A1209BCED2430FF12B8
:10049800116A7BFF7A0D799A7D03120F22E490800E
:1004A80065F0A3F07B017A807965908036F0A374BB
:1004B80002F07F007E127D007C001204CE0201341F
:03000000020B5799
:0800F800FFFF4457494E543547
:100B5700759401759502758E0075930075C870754B
:100B6700C96075F800787FE4F6D8FD75810D020B32
:010B7700B3CA
:1010D1000003030601040602050003051F1C1F1E71
:0E10E1001F1E1F1F1E1F1E1F1305010C0000E7
:100EF70002080000020A0000020C000042804100C4
:100F0700004E8043000000000000000000000000C9
:020F17000000D8
:100E1000C2AFC2D3C2D4E4F58EF593759401759533
:100E20000253C9FD75F901F5A8F5B8F59AF5A9F5CC
:100E3000B97580FF7590FF75A0FF75B0FF75B7108D
:100E4000F5BCF5BDF5BE75D88075985075BA0375BB
:100E5000AAE4759680759780F5D975D7E0758911E4
:100E6000F58CF58AC28CF58DF58BC28E758805756B
:0D0E7000C870F5CDF5CC75CBBC75CACD2290
:0A11810043B70275BCFF43BD032213
:100FA9009010E9E493908051F09010EAE4939080D6
:100FB90052F09010EBE493908053F09010ECE4938E
:100FC900908055F09010EDE493908056F09010EEDB
:070FD900E493908057F02221
:10114A00438901758CBC758ACDD2A9D2AFD28C22C3
:10115A00438910758DBC758BCDD2ABD2AFD28E229E
:1011230075C870E4F5CDF5CC75CBDE75CA6643A8FA
:0411330020D2C822DC
:03002B0002118B34
:05118B00C2C6B2A03253
:0604C8007E207D007C0097
:0604CE0090802F120B1EAE
:1004D400908038EBF0A3EAF0A3E9F090802FE0FCE1
:1004E400A3E0FDA3E0FEA3E0FF7801120B0B9080D4
:1004F4003B120B1E90802FA3A3A3E05401FFAB0774
:10050400C2AF90803BE0FCA3E0FDA3E0FEA3E0FFCC
:100514007810120B0B8FF190803BE0FCA3E0FDA35D
:10052400E0FEA3E0FF7808120B0B8FF290803BA350
:10053400A3A3E0F5F375F401AF03EF700302062EF5
:10054400908036E0FEA3E0FFD39400EE94005003C5
:1005540002062EE4F5F490803FF0D3EF9400EE947D
:1005640000402A908038E0FBA3E475F001120A27CA
:10057400A9F0FA120991F5FC90803FE04402F09052
:100584008037E024FFF0908036E034FFF0D3908091
:1005940037E09400908036E09400402A908038E060
:1005A400FBA3E475F001120A27A9F0FA120991F5E8
:1005B400FD90803FE04401F0908037E024FFF0900C
:1005C4008036E034FFF090803FE060094480F5F825
:1005D400D2FE20FEFD90803BE0FCA3E0FDA3E0FE04
:1005E400A3E02401FFE43EFEE43DFDE43CFC9080F6
:1005F4003B120B1E90803BE0FCA3E0FDA3E0FEA3B6
:10060400E0FF7810120B0B8FF190803BE0FCA3E02D
:10061400FDA3E0FEA3E0FF7808120B0B8FF290809D
:100624003BA3A3A3E0F5F375F401908036E0FEA3A9
:10063400E0FFC39404EE9400406A75F88FA3E0FBD6
:10064400A3E475F001120A27A9F0FA120991F5FA48
:10065400908038E0FBA3E475F001120A27A9F0FAB0
:10066400120991F5FB908038E0FBA3E475F00112C8
:100674000A27A9F0FA120991F5FC908038E0FBA34F
:10068400E475F001120A27A9F0FA120991F5FDD2D6
:10069400FE20FEFD908037E024FCF0908036E034AC
:1006A400FFF08086D3EF9400EE94005003020740DD
:1006B400E490803FF0D3908037E09400908036E05F
:1006C4009400401C908038E0FBA3E475F001120A0A
:1006D40027A9F0FA120991F5FA90803FE04408F056
:1006E400908036E0FCA3E0FDD39401EC9400401A22
:1006F400A3E0FBA3E475F001120A27A9F0FA12099A
:1007040091F5FB90803FE04404F0D3ED9402EC9427
:1007140000401C908038E0FBA3E475F001120A2726
:10072400A9F0FA120991F5FC90803FE04402F090A0
:10073400803FE04480F5F8D2FE20FEFDE4F5F8D2D7
:01074400AF05
:010745002291
:0607460090802C120B1E36
:10074C00908035EBF0A3EAF0A3E9F090802CE0FC6C
:10075C00A3E0FDA3E0FEA3E0FF7801120B0B908059
:10076C0038120B1E90802CA3A3A3E05401FFAB07FF
:10077C00C2AF908038E0FCA3E0FDA3E0FEA3E0FF55
:10078C007810120B0B8FF1908038E0FCA3E0FDA3E6
:10079C00E0FEA3E0FF7808120B0B8FF2908038A3D9
:1007AC00A3A3E0F5F375F401AF03EF700302089215
:1007BC00D3908034E09400908033E0940050030296
:1007CC000892E4F5F475F8AFD2FE20FEFDD39080CC
:1007DC0034E09400908033E094004023908035E026
:1007EC00FBA3E475F001120A27A9F0FAE5FC120943
:1007FC00AA908034E024FFF0908033E034FFF0D3F3
:10080C00908034E09400908033E0940040239080FA
:10081C0035E0FBA3E475F001120A27A9F0FAE5FD17
:10082C001209AA908034E024FFF0908033E034FF6A
:10083C00F0908038E0FCA3E0FDA3E0FEA3E02401EF
:10084C00FFE43EFEE43DFDE43CFC908038120B1EC0
:10085C00908038E0FCA3E0FDA3E0FEA3E0FF78105D
:10086C00120B0B8FF1908038E0FCA3E0FDA3E0FEAF
:10087C00A3E0FF7808120B0B8FF2908038A3A3A390
:10088C00E0F5F375F401908033E0FEA3E0FFC39430
:10089C0004EE9400406C75F8AFD2FE20FEFD908003
:1008AC0035E0FBA3E475F001120A27A9F0FAE5FA8A
:1008BC001209AA908035E0FBA3E475F001120A2717
:1008CC00A9F0FAE5FB1209AA908035E0FBA3E475C8
:1008DC00F001120A27A9F0FAE5FC1209AA9080355A
:1008EC00E0FBA3E475F001120A27A9F0FAE5FD126A
:1008FC0009AA908034E024FCF0908033E034FFF0BF
:10090C008084D3EF9400EE9400407475F8AFD2FE5F
:10091C0020FEFDD3908034E09400908033E094006E
:10092C004015908035E0FBA3E475F001120A27A96D
:10093C00F0FAE5FA1209AAD3908034E09401908081
:10094C0033E094004015908035E0FBA3E475F00192
:10095C00120A27A9F0FAE5FB1209AAD3908034E019
:10096C009402908033E094004015908035E0FBA316
:10097C00E475F001120A27A9F0FAE5FC1209AAE4C1
:04098C00F5F8D2AFF9
:010990002244
:03000B00021038A8
:10103800C0E0C0D0758CBC758ACD0509E509700281
:101048000508D3E50D9400E50C94004008E50D155E
:0A1058000D7002150CD0D0D0E0326C
:080BF80090802FEDF0A3EBF05B
:100C0000EF24D0FFE43407AB07FA7C007D64FE12CA
:100C100009BCA3EFF0AE02AF037C007D641209BCF7
:100C2000A3EDF0908031E0D394137480948040055C
:100C3000A3E02464F0908032E0FF1313543FFDEFF3
:100C40002DFFE433FE7C007D071209BCAE04AF0526
:100C5000908030E02FFFE43EFE90802FE0F990106E
:100C6000D0937C002FFFEC3EFE908032E054037066
:100C70000FE9C39403748094805005EF1F70011E28
:100C80007C007D071209BCAE04AF05EF4E70037FF8
:050C90000622EF14FF35
:010C9500223C
:100C960043C901908041E07004A3E06401707B9039
:100CA6008051E0FFA3E0FDA3E0FB120BF890805417
:100CB600EFF0A3E0FF908029E4F0A3EFF0908056D8
:100CC600E0FF90802BE4F0A3EFF0908057E0FF90D8
:100CD600802DE4F0A3EFF07B017A807929908036AD
:100CE600E4F0A37402F07F101204C87B017A8079C5
:100CF6002B908036E4F0A37402F07F201204C87BA8
:100D0600017A80792D908036E4F0A37402F07F306A
:0A0D16001204C8E4908041F0A3F03D
:010D200022B0
:03001B00020D9E35
:100D9E00C0E0C083C082C0D0758DBC758BCD050BF5
:100DAE00E50B7002050AC394E8E50A9403404A7500
:100DBE000A00750B00908057E004F0E0D3943B746A
:100DCE00809480402CE4F0908056E004F0E0D394C0
:100DDE003B74809480401AE4F0908055E004F0E07B
:100DEE00D39417748094804008E4F0908053E0040C
:100DFE00F0908041E4F0A304F0D0D0D082D083D024
:020E0E00E032D0
:0B1176008E0C8F0DE50D450C70FA2269
:080F190041802000418021000D
:1011370075A78075AB80E4F5AE75AFE0D2BDC2810F
:03114700D2AF2202
:0C116A008FACE5A7540160FA53A7FE22E9
:100F2200908029EBF0A3EAF0A3E9F0908029E0FB9E
:100F3200A3E0FAA3E04A4B602BED6028D281AF0513
:100F42001DEF601E908029E0FBA3E0FAA3E0F912F6
:100F52000991FF12116A90802AE475F001120A11B8
:050F620080DCC28122C9
:03007300020F6712
:100F6700C0E0C083C082C0D075D000C007E5AB54D5
:050F770001640170227D
:100F7C00908040E5ADF0E0FF908020E02400F58209
:100F8C00E43480F583EFF0908020E004541FF0539C
:020F9C00ABFEAA
:0B0F9E00D007D0D0D082D083D0E0324A
:100FE000908070745AF0A3EFF0ECA3F0A3EDF07BC7
:100FF000017A807970908036E4F0A37404F07F86E3
:0B1000007E007D007C001204CE7F000B
:01100B0022C2
:02106200AC06DA
:10106400EC908078F0A3EFF07B017A80797890801F
:1010740036E4F0A37402F07F927E007D007C0012BF
:0410840004CE7F0017
:011088002245
:10100C00908074745AF0A3EFF0ECA3F0A3EDF07B96
:10101C00017A807974908036E4F0A37404F07F88B0
:0B102C007E007D007C001204CE7F00DF
:011037002296
:02108900AC06B3
:10108B00EC90807AF0A3EFF07B017A80797A9080F4
:10109B0036E4F0A37402F07F937E007D007C001297
:0410AB0004CE7F00F0
:0110AF00221E
:0B0E7D00908029EBF0A3EAF0A3E9F05D
:100E8800EFD3940774809480500E908029E0FBA3E0
:100E9800E0FAA3E04A4B70037F01227E007C007DCC
:100EA80002120B2AEF2432FFE43EFEE43DFDE43C4F
:100EB800FC908029E0FBA3E0FAA3E0F9908033E4FA
:0A0EC800F0A37402F01207467F0049
:010ED20022FD
:1010B000908029EFF07B017A807929908036E4F0E6
:1010C000A304F07F827E007D007C001204CE7F00AE
:0110D00022FD
:051190007F320210B0E7
:1010EF007B017A807968908036E4F0A37408F07FF2
:0D10FF00107E007D007C001204CE7F0022D8
:10110C00908033E4F0A37408F07F107E007D007CA7
:07111C00001207467F0022CC
:100B7800020100E493A3F8E493A34003F68001F292
:100B880008DFF48029E493A3F85407240CC8C3337E
:100B9800C4540F4420C8834004F456800146F6DF4D
:100BA800E4800B0102040810204080900ED3E47EFC
:100BB800019360BCA3FF543F30E509541FFEE49342
:100BC800A360010ECF54C025E060A840B8E493A309
:100BD800FAE493A3F8E493A3C8C582C8CAC583CA34
:100BE800F0A3C8C582C8CAC583CADFE9DEE780BEEC
:010F210000CF
:10099100BB010689828A83E0225002E722BBFE0264
:0909A100E32289828A83E4932297
:1009AA00BB010689828A83F0225002F722BBFE012C
:0209BA00F32226
:1009BC00BC000BBE0029EF8DF084FFADF022E4CC1F
:1009CC00F875F008EF2FFFEE33FEEC33FCEE9DECE8
:1009DC00984005FCEE9DFE0FD5F0E9E4CEFD22ED2E
:1009EC00F8F5F0EE8420D21CFEADF075F008EF2F78
:1009FC00FFED33FD4007985006D5F0F222C398FD69
:050A0C000FD5F0EA2205
:100A1100C5F0F8A3E028F0C5F0F8E5821582700270
:060A21001583E038F0220D
:100A2700A3F8E0C5F025F0F0E58215827002158382
:060A3700E0C838F0E822DF
:100A3D0075F008758200EF2FFFEE33FECD33CDCC70
:100A4D0033CCC58233C5829BED9AEC99E5829840F3
:100A5D000CF582EE9BFEED9AFDEC99FC0FD5F0D6D0
:100A6D00E4CEFBE4CDFAE4CCF9A88222B800C1B9FA
:100A7D000059BA002DEC8BF084CFCECDFCE5F0CB38
:100A8D00F97818EF2FFFEE33FEED33FDEC33FCEB71
:100A9D0033FB10D703994004EB99FB0FD8E5E4F92C
:100AAD00FA227818EF2FFFEE33FEED33FDEC33FC19
:100ABD00C933C910D7059BE99A4007EC9BFCE99A0D
:100ACD00F90FD8E0E4C9FAE4CCFB2275F010EF2F52
:100ADD00FFEE33FEED33FDCC33CCC833C810D70752
:100AED009BEC9AE899400AED9BFDEC9AFCE899F88D
:0E0AFD000FD5F0DAE4CDFBE4CCFAE4C8F92220
:100B0B00E8600FECC313FCED13FDEE13FEEF13FFC8
:030B1B00D8F122EC
:0C0B1E00ECF0A3EDF0A3EEF0A3EFF0224A
:100B2A00EC8EF0A4CCC5F0CCCDF8EFA4CEC5F02D58
:100B3A00FDE43CFCE8A42EC8C5F03DFDE43CFCEF16
:0D0B4A00A4FFE5F028FEE43DFDE43CFC22A4
:00000001FF
