:100E560044656D6F20537461727465640D0A0054A5
:100E6600696D653A2000207C2000207C20414443A7
:100E760031205261773A2000202800207C2041440E
:100E86004331204572726F72000D0A0077726974E1
:100E960074656E206E756D6265723A20006F7574AA
:100EA600206F66206C696D69740D0A00566172695F
:100EB60061626C652075706461746564205B6E6543
:0D0EC600772076616C75653A005D0D0A00BD
:100FBB0042804B00004280570000428051000042AB
:100FCB00804D00004180590042804F000044805307
:100FDB0000000000C10042803F0000428041000041
:100FEB00428043000042804500004280470000429F
:040FFB008049000029
:1011E1009080257419F0A3740BF0A37409F0A37413
:1011F10002F0A37410F0A3740DF0E4A3F0A3F07B4C
:10120100017A807925908034F0A37408F07F107EF4
:08121100007D007C000204D402
:10102A00200069C3E5099420E508944E405ED20089
:10103A00908081745AF0A374A5F0A37410F0E4A30D
:10104A00F07B017A807981908034F0A37404F07F78
:10105A00067E007D007C001204D47FE87E03121312
:10106A00409080857455F0A374AAF0A3745AF0A333
:10107A0074A5F07B017A807985908034E4F0A374BA
:0C108A0004F0FF7E007D007C001204D406
:011096002237
:100B5D0090803FE0FEA3E0FFC3E5099FFFE5089EFF
:100B6D00FEC3EF9488EE9413405790803FE508F054
:100B7D00A3E509F0908045E07002A3E07009908034
:100B8D0045F0A304F08007E4908045F0A3F0908039
:100B9D0025745AF0A37401F0908045E0FFA3E09016
:100BAD008027CFF0A3EFF07B017A807925908034F8
:100BBD00E4F0A37404F07F847E007D007C001204B9
:100BCD00D4908045E07002A3E06003020C8B90800E
:100BDD0041E0FEA3E0FFC3E5099FFFE5089EFEC3CC
:100BED00EF9490EE9401403E908041E508F0A3E52E
:100BFD0009F0908047E07002A3E07009908047F003
:100C0D00A304F08007E4908047F0A3F07B017A8085
:100C1D007947908034E4F0A37402F07F307E107D2C
:100C2D00007C001204D4908043E0FEA3E0FFC3E5F6
:100C3D00099FFFE5089EFEC3EF9484EE9403403EAA
:100C4D00908043E508F0A3E509F0908049E070023B
:100C5D00A3E07009908049F0A304F08007E4908030
:100C6D0049F0A3F07B017A807949908034E4F0A3B8
:0E0C7D007402F07F407E107D007C001204D4D3
:010C8B002246
:100100001210971213141213241212ED121301126B
:10011000121912134B7BFF7A0E79567D0E12115A6B
:100120001211E1908051E508F0A3E509F090804DAF
:10013000E508F0A3E509F0120DCB120B5D90804DA0
:10014000E0FEA3E0FFC3E5099FFFE5089EFEC3EFC5
:100150009464EE9400401C90804DE508F0A3E509FE
:10016000F0908059E0F590E004F0E075F00384FF32
:1001700012127A908051E0FEA3E0FFC3E5099FFFD1
:10018000E5089EFEC3EF9488EE9413500302038AA1
:10019000908051E508F0A3E509F07BFF7A0E7965C0
:1001A0007D0612115A90806EE075F00A842430FFAB
:1001B00012133490806EE075F00A84E5F02430FF6D
:1001C0001213347F3A12133490806FE075F00A8472
:1001D0002430FF12133490806FE075F00A84E5F04C
:1001E0002430FF1213347F3A121334908070E0757C
:1001F000F00A842430FF121334908070E075F00A06
:1002000084E5F02430FF1213347BFF7A0E796C7D85
:100210000312115A7B017A80794F7F01121104EF8A
:100220007BFF60030203767A0E79707D0D12115AFE
:1002300090804FE0FEA3E0FF7C277D101209C2EF03
:100240002430FF12133490804FE0FEA3E0FF7C27A0
:100250007D101209C27E037FE8CFCDCFCECCCE1267
:1002600009C2EF2430FF12133490804FE0FEA3E068
:10027000FF7C037DE81209C27E007F64CFCDCFCE24
:10028000CCCE1209C2EF2430FF12133490804FE01D
:10029000FEA3E0FF7C007D641209C27E007F0ACFCE
:1002A000CDCFCECCCE1209C2EF2430FF1213349042
:1002B000804FE0FEA3E0FF7C007D0A1209C2ED241E
:1002C00030FF12133490804FE0FEA3E0FF7C0C7DE2
:1002D000E4120B30E47BFF7AFFF9F8120A7F90807A
:1002E00053120B247BFF7A0E797E7D0212115AE4A1
:1002F0007BE87A03F9F8908053E0FCA3E0FDA3E0EB
:10030000FEA3E0FF120A7FE47B0AFAF9F8120A7FE3
:10031000EB2430FF1213347F2E121334E47B64FA83
:10032000F9F8908053E0FCA3E0FDA3E0FEA3E0FF1A
:10033000120A7FE47B0AFAF9F8120A7FEB2430FFF5
:10034000121334E47B0AFAF9F8908053E0FCA3E03E
:10035000FDA3E0FEA3E0FF120A7FE47B0AFAF9F8AE
:10036000120A7FEB2430FF1213347F561213347FAE
:100370002912133480097A0E79817D0D12115A7B6E
:10038000FF7A0E798F7D0212115A908021E0FF9042
:060390008020E06F6078A0
:10039600908021E02400F582E43480F583E09080AB
:1003A60022F0908021E004541FF0908022E0FFC3E9
:0A03B60094304049EFD394395043CE
:1003C000EF24D0FEE434FFA3F0A3CEF07B017A80CB
:1003D0007923908034E4F0A37402F07F407E207D86
:1003E000007C001204D47BFF7A0E79927D101211EA
:1003F0005A908022E0FF1213347BFF7A0E798F7DB2
:0104000002F9
:0D04010080087BFF7A0E79A37D0E12115A40
:10040E007B017A80795790802FE4F0A37402F07FFD
:10041E00007E127D007C0012074C908057E0700425
:10042E00A3E06401600302013790804CE004F07099
:10043E000690804BE004F07BFF7A0E79B27D1C12A1
:10044E00115A90804BE0FEA3E0FF7C007D64120900
:10045E00C27C007D0A1209C2ED2430FF12133490C3
:10046E00804BE0FEA3E0FF7C007D0A1209C27C00F7
:10047E007D0A1209C2ED2430FF12133490804BE036
:10048E00FEA3E0FF7C007D0A1209C2ED2430FF12AC
:10049E0013347BFF7A0E79CF7D0312115AE49080CC
:1004AE0057F0A3F07B017A807957908034F0A374D3
:1004BE0002F07F007E127D007C001204D402013710
:03000000020C8C63
:0800F800FFFF4457494E543547
:100C8C00759401759502758E0075930075C8707515
:100C9C00C96075F800787FE4F6D8FD758120020CE8
:010CAC00E85F
:10129B000003030601040602050003051F1C1F1EA5
:0E12AB001F1E1F1F1E1F1E1F1305010C00001B
:100FFF0002080000020A0000020C000042805A00A2
:10100F00004E805C000000000000000000000000A7
:02101F000000CF
:10109700C2AFC2D3C2D4E4F58EF5937594017595AA
:1010A7000253C9FD75F901F5A8F5B8F59AF5A9F543
:1010B700B97580FF7590FF75A0FF75B0FF75B71004
:1010C700F5BCF5BDF5BE75D88075985075BA037532
:1010D700AAE4759680759780F5D975D7E07589115B
:1010E700F58CF58AC28CF58DF58BC28E75880575E2
:0D10F700C870F5CDF5CC75CBBC75CACD2207
:0A134B0043B70275BCFF43BD032247
:101219009012B3E49390806AF09012B4E4939080B2
:101229006BF09012B5E49390806CF09012B6E49351
:1012390090806EF09012B7E49390806FF09012B89E
:07124900E493908070F02295
:10131400438901758CBC758ACDD2A9D2AFD28C22F7
:10132400438910758DBC758BCDD2ABD2AFD28E22D2
:1012ED0075C870E4F5CDF5CC75CBDE75CA6643A82F
:0412FD0020D2C82211
:03002B0002135568
:05135500C2C6B2A03287
:0604CE007E207D007C0091
:0604D40090802D120B24A4
:1004DA00908036EBF0A3EAF0A3E9F090802DE0FCDF
:1004EA00A3E0FDA3E0FEA3E0FF7801120B119080C8
:1004FA0039120B2490802DA3A3A3E05401FFAB076C
:10050A00C2AF908039E0FCA3E0FDA3E0FEA3E0FFC8
:10051A007810120B118FF1908039E0FCA3E0FDA353
:10052A00E0FEA3E0FF7808120B118FF2908039A346
:10053A00A3A3E0F5F375F401AF03EF7003020634E9
:10054A00908034E0FEA3E0FFD39400EE94005003C1
:10055A00020634E4F5F490803DF0D3EF9400EE9473
:10056A0000402A908036E0FBA3E475F001120A2DC0
:10057A00A9F0FA120997F5FC90803DE04402F09048
:10058A008035E024FFF0908034E034FFF0D390808F
:10059A0035E09400908034E09400402A908036E060
:1005AA00FBA3E475F001120A2DA9F0FA120997F5D6
:1005BA00FD90803DE04401F0908035E024FFF0900A
:1005CA008034E034FFF090803DE060094480F5F823
:1005DA00D2FE20FEFD908039E0FCA3E0FDA3E0FE00
:1005EA00A3E02401FFE43EFEE43DFDE43CFC9080F0
:1005FA0039120B24908039E0FCA3E0FDA3E0FEA3AE
:10060A00E0FF7810120B118FF1908039E0FCA3E023
:10061A00FDA3E0FEA3E0FF7808120B118FF2908091
:10062A0039A3A3A3E0F5F375F401908034E0FEA3A7
:10063A00E0FFC39404EE9400406A75F88FA3E0FBD0
:10064A00A3E475F001120A2DA9F0FA120997F5FA36
:10065A00908036E0FBA3E475F001120A2DA9F0FAA6
:10066A00120997F5FB908036E0FBA3E475F00112BE
:10067A000A2DA9F0FA120997F5FC908036E0FBA33F
:10068A00E475F001120A2DA9F0FA120997F5FDD2C4
:10069A00FE20FEFD908035E024FCF0908034E034AA
:1006AA00FFF08086D3EF9400EE94005003020746D1
:1006BA00E490803DF0D3908035E09400908034E05F
:1006CA009400401C908036E0FBA3E475F001120A06
:1006DA002DA9F0FA120997F5FA90803DE04408F046
:1006EA00908034E0FCA3E0FDD39401EC9400401A1E
:1006FA00A3E0FBA3E475F001120A2DA9F0FA12098E
:10070A0097F5FB90803DE04404F0D3ED9402EC941D
:10071A0000401C908036E0FBA3E475F001120A2D1C
:10072A00A9F0FA120997F5FC90803DE04402F09096
:10073A00803DE04480F5F8D2FE20FEFDE4F5F8D2D3
:01074A00AFFF
:01074B00228B
:06074C00908028120B242E
:10075200908031EBF0A3EAF0A3E9F0908028E0FC6E
:10076200A3E0FDA3E0FEA3E0FF7801120B1190804D
:1007720034120B24908028A3A3A3E05401FFAB07FB
:10078200C2AF908034E0FCA3E0FDA3E0FEA3E0FF53
:100792007810120B118FF1908034E0FCA3E0FDA3DE
:1007A200E0FEA3E0FF7808120B118FF2908034A3D1
:1007B200A3A3E0F5F375F401AF03EF700302089809
:1007C200D3908030E0940090802FE0940050030298
:1007D2000898E4F5F475F8AFD2FE20FEFDD39080C0
:1007E20030E0940090802FE094004023908031E02C
:1007F200FBA3E475F001120A2DA9F0FAE5FC120937
:10080200B0908030E024FFF090802FE034FFF0D3EE
:10081200908030E0940090802FE0940040239080FC
:1008220031E0FBA3E475F001120A2DA9F0FAE5FD0F
:100832001209B0908030E024FFF090802FE034FF66
:10084200F0908034E0FCA3E0FDA3E0FEA3E02401ED
:10085200FFE43EFEE43DFDE43CFC908034120B24B8
:10086200908034E0FCA3E0FDA3E0FEA3E0FF78105B
:10087200120B118FF1908034E0FCA3E0FDA3E0FEA7
:10088200A3E0FF7808120B118FF2908034A3A3A388
:10089200E0F5F375F40190802FE0FEA3E0FFC3942E
:1008A20004EE9400406C75F8AFD2FE20FEFD9080FD
:1008B20031E0FBA3E475F001120A2DA9F0FAE5FA82
:1008C2001209B0908031E0FBA3E475F001120A2D09
:1008D200A9F0FAE5FB1209B0908031E0FBA3E475C0
:1008E200F001120A2DA9F0FAE5FC1209B09080314C
:1008F200E0FBA3E475F001120A2DA9F0FAE5FD125E
:1009020009B0908030E024FCF090802FE034FFF0BA
:100912008084D3EF9400EE9400407475F8AFD2FE59
:1009220020FEFDD3908030E0940090802FE0940070
:100932004015908031E0FBA3E475F001120A2DA965
:10094200F0FAE5FA1209B0D3908030E09401908079
:100952002FE094004015908031E0FBA3E475F00194
:10096200120A2DA9F0FAE5FB1209B0D3908030E00B
:10097200940290802FE094004015908031E0FBA318
:10098200E475F001120A2DA9F0FAE5FC1209B0E4AF
:04099200F5F8D2AFF3
:01099600223E
:03000B000212508E
:10125000C0E0C0D0758CBC758ACD0509E509700267
:101260000508D3E50D9400E50C94004008E50D1544
:0A1270000D7002150CD0D0D0E03252
:080D2D0090802BEDF0A3EBF028
:100D3500EF24D0FFE43407AB07FA7C007D64FE1294
:100D450009C2A3EFF0AE02AF037C007D641209C2B5
:100D5500A3EDF090802DE0D394137480948040052A
:100D6500A3E02464F090802EE0FF1313543FFDEFC1
:100D75002DFFE433FE7C007D071209C2AE04AF05EA
:100D850090802CE02FFFE43EFE90802BE0F990123E
:100D95009A937C002FFFEC3EFE90802EE05403706A
:100DA5000FE9C39403748094805005EF1F70011EF2
:100DB5007C007D071209C2AE04AF05EF4E70037FBC
:050DC5000622EF14FFFF
:010DCA002206
:100DCB0043C90190805AE07004A3E06401707B90EA
:100DDB00806AE0FFA3E0FDA3E0FB120D2D90806D78
:100DEB00EFF0A3E0FF908025E4F0A3EFF090806F8D
:100DFB00E0FF908027E4F0A3EFF0908070E0FF908D
:100E0B008029E4F0A3EFF07B017A80792590803480
:100E1B00E4F0A37402F07F101204CE7B017A807988
:100E2B0027908034E4F0A37402F07F201204CE7B71
:100E3B00017A807929908034E4F0A37402F07F303A
:0A0E4B001204CEE490805AF0A3F0E8
:010E5500227A
:03001B00020F4988
:100F4900C0E0C083C082C0D0758DBC758BCD050B48
:100F5900E50B7002050AC394E8E50A9403404A7553
:100F69000A00750B00908070E004F0E0D3943B74A4
:100F7900809480402CE4F090806FE004F0E0D394FA
:100F89003B74809480401AE4F090806EE004F0E0B5
:100F9900D39417748094804008E4F090806CE00446
:100FA900F090805AE4F0A304F0D0D0D082D083D05E
:020FB900E03224
:0B1340008E0C8F0DE50D450C70FA229D
:100ED30090807FE4F0A37480F0E4908072F09080BF
:100EE30072E0FDC39408748094805059A3745AF03F
:100EF300A37402F0EDFF7E0090807FE0FAA3E0FB95
:100F03002FEE3A908075F0ED2BA3F0A37410F0E46C
:100F1300A3F0A3F0A37464F0E4A3F0A3F0A3F0A3FD
:100F2300F07B017A807973908034F0A3740CF07FA6
:100F3300AA7E001204D07FC87E00121340908072F4
:050F4300E004F08099BC
:010F48002286
:08102100418020004180210004
:1013010075A78075AB80E4F5AE75AFE0D2BDC28143
:03131100D2AF2236
:0C1334008FACE5A7540160FA53A7FE221D
:10115A00908025EBF0A3EAF0A3E9F0908025E0FB6C
:10116A00A3E0FAA3E04A4B602BED6028D281AF05D9
:10117A001DEF601E908025E0FBA3E0FAA3E0F912C0
:10118A000997FF121334908026E475F001120A17AA
:05119A0080DCC281228F
:0300730002119FD8
:10119F00C0E0C083C082C0D075D000C007E5AB549B
:0511AF00016401702243
:1011B40090803EE5ADF0E0FF908020E02400F582D1
:1011C400E43480F583EFF0908020E004541FF05362
:0211D400ABFE70
:0B11D600D007D0D0D082D083D0E03210
:0B110400908025EBF0A3EAF0A3E9F0D7
:10110F00EFD3940774809480500E908025E0FBA35A
:10111F00E0FAA3E04A4B70037F01227E007C007D42
:10112F0002120B30EF2432FFE43EFEE43DFDE43CBF
:10113F00FC908025E0FBA3E0FAA3E0F990802FE478
:0A114F00F0A37402F012074C7F00B9
:011159002273
:10127A00908025EFF07B017A807925908034E4F024
:10128A00A304F07F827E007D007C001204D47F00DC
:01129A002231
:05135A007F3202127A4F
:1012B9007B017A807989908034E4F0A37408F07F07
:0D12C900107E007D007C001204D47F002206
:1012D60090802FE4F0A37408F07F107E007D007CE0
:0712E6000012074C7F0022FB
:100CAD00020100E493A3F8E493A34003F68001F25C
:100CBD0008DFF48029E493A3F85407240CC8C33348
:100CCD00C4540F4420C8834004F456800146F6DF17
:100CDD00E4800B0102040810204080900FBBE47EDD
:100CED00019360BCA3FF543F30E509541FFEE4930C
:100CFD00A360010ECF54C025E060A840B8E493A3D3
:100D0D00FAE493A3F8E493A3C8C582C8CAC583CAFD
:100D1D00F0A3C8C582C8CAC583CADFE9DEE780BEB5
:0110290000C6
:10099700BB010689828A83E0225002E722BBFE025E
:0909A700E32289828A83E4932291
:1009B000BB010689828A83F0225002F722BBFE0126
:0209C000F32220
:1009C200BC000BBE0029EF8DF084FFADF022E4CC19
:1009D200F875F008EF2FFFEE33FEEC33FCEE9DECE2
:1009E200984005FCEE9DFE0FD5F0E9E4CEFD22ED28
:1009F200F8F5F0EE8420D21CFEADF075F008EF2F72
:100A0200FFED33FD4007985006D5F0F222C398FD62
:050A12000FD5F0EA22FF
:100A1700C5F0F8A3E028F0C5F0F8E582158270026A
:060A27001583E038F02207
:100A2D00A3F8E0C5F025F0F0E5821582700215837C
:060A3D00E0C838F0E822D9
:100A430075F008758200EF2FFFEE33FECD33CDCC6A
:100A530033CCC58233C5829BED9AEC99E5829840ED
:100A63000CF582EE9BFEED9AFDEC99FC0FD5F0D6CA
:100A7300E4CEFBE4CDFAE4CCF9A88222B800C1B9F4
:100A83000059BA002DEC8BF084CFCECDFCE5F0CB32
:100A9300F97818EF2FFFEE33FEED33FDEC33FCEB6B
:100AA30033FB10D703994004EB99FB0FD8E5E4F926
:100AB300FA227818EF2FFFEE33FEED33FDEC33FC13
:100AC300C933C910D7059BE99A4007EC9BFCE99A07
:100AD300F90FD8E0E4C9FAE4CCFB2275F010EF2F4C
:100AE300FFEE33FEED33FDCC33CCC833C810D7074C
:100AF3009BEC9AE899400AED9BFDEC9AFCE899F887
:0E0B03000FD5F0DAE4CDFBE4CCFAE4C8F92219
:100B1100E8600FECC313FCED13FDEE13FEEF13FFC2
:030B2100D8F122E6
:0C0B2400ECF0A3EDF0A3EEF0A3EFF02244
:100B3000EC8EF0A4CCC5F0CCCDF8EFA4CEC5F02D52
:100B4000FDE43CFCE8A42EC8C5F03DFDE43CFCEF10
:0D0B5000A4FFE5F028FEE43DFDE43CFC229E
:00000001FF
