:1014EA0044656D6F20537461727465640D0A004E11
:1014FA005443205261773A2000207C2054656D7055
:10150A003A200020430D0A00414443204572726F7D
:10151A00720D0A007772697474656E206E756D6259
:10152A0065723A20000D0A006F7574206F66206C90
:10153A00696D69740D0A005661726961626C652091
:10154A0075706461746564205B6E65772076616C82
:10155A0075653A005D0D0A0048696464656E204D40
:10156A00656E7520547269676765726564210D0A34
:01157A000070
:1016060042801100004280230000428020000042F8
:101616008013000041802500428018000044801C91
:1016260000000000428026000044800C00000000FC
:101636004180220041801000C1004280000000422B
:1016460080020000428004000042800600004280C2
:0816560008000042800A0000B8
:1018A100EFC4540FFE9080A5F0EF540FA3F0EEC3E8
:1018B100940A748094809080A5E0500424308002C2
:1018C1002437FF121AC39080A6E0FFC3940A7480E4
:1018D10094805005EF243080069080A6E02437FFE5
:0818E100121AC37F20021AC392
:0812B700908054EEF0A3EFF06B
:1012BF00FDAC06E412042D90805A12064390805420
:1012CF00E0FEA3E0FFE4FCFD7BFE7AFFF9F8D3120A
:1012DF0005EE50097FE17EFA7DC77CC222908054D3
:1012EF00E07002A3E070097FE17EFA7DC77C4222A5
:1012FF0090805AE0F8A3E0F9A3E0FAA3E0FB7F00A7
:10130F007EFF7D7F7C47120103A804A905AA06ABC7
:10131F00077F007EFF7D7F7C47120301E4FBFA7994
:10132F008078BF1201077B007A40791C7846120142
:10133F00F87B007A40791C78461203011211C27BA8
:10134F00337A13799578431201F87B007A90797884
:10135F007845120107A804A905AA06AB077F747E7A
:10136F00BE7D907C491203019080561206439080F7
:10137F0056E0FCA3E0FDA3E0FEA3E0FF7B337A93EE
:10138F00798878C3120107908056120643908056D1
:0B139F00E0FCA3E0FDA3E0FEA3E0FFE4
:0113AA002220
:101970009080547419F0A3740BF0A37409F0A3744D
:1019800002F0A37410F0A3740DF0E4A3F0A3F07BB5
:10199000017A807954908063F0A37408F07F107E00
:0819A000007D007C00020B9C9D
:10177100200069C3E5099420E508944E405ED2003B
:10178100908095745AF0A374A5F0A37410F0E4A3AB
:10179100F07B017A807995908063F0A37404F07FE7
:1017A100067E007D007C00120B9C7FE87E03121AEE
:1017B100CF9080997455F0A374AAF0A3745AF0A342
:1017C10074A5F07B017A807999908063E4F0A37429
:0C17D10004F0FF7E007D007C00120B9CE9
:0117DD0022E9
:10105F00908000E0FEA3E0FFC3E5099FFFE5089E37
:10106F00FEC3EF9488EE94134057908000E508F08C
:10107F00A3E509F0908006E07002A3E0700990806C
:10108F0006F0A304F08007E4908006F0A3F09080B0
:10109F0054745AF0A37401F0908006E0FFA3E0901F
:1010AF008056CFF0A3EFF07B017A80795490806364
:1010BF00E4F0A37404F07F847E007D007C00120BAB
:1010CF009C908006E07002A3E0600302118D908077
:1010DF0002E0FEA3E0FFC3E5099FFFE5089EFEC304
:1010EF00EF9490EE9401403E908002E508F0A3E566
:1010FF0009F0908008E07002A3E07009908008F07A
:10110F00A304F08007E4908008F0A3F07B017A80BD
:10111F007908908063E4F0A37402F07F307E107D35
:10112F00007C00120B9C908004E0FEA3E0FFC3E55F
:10113F00099FFFE5089EFEC3EF9484EE9403403EA3
:10114F00908004E508F0A3E509F090800AE07002B2
:10115F00A3E0700990800AF0A304F08007E4908068
:10116F000AF0A3F07B017A80790A908063E4F0A300
:0E117F007402F07F407E107D007C00120B9CFD
:01118D00223F
:1006AD001217DE121AA3121AB3121A7C121A901212
:1006BD0019A8121ADA7BFF7A1479EA7D0E1218E95D
:1006CD00121970908020E508F0A3E509F0908013D1
:1006DD00E508F0A3E509F012157B12105F90801369
:1006ED00E0FEA3E0FFC3E5099FFFE5089EFEC3EF13
:1006FD009464EE9400401C908013E508F0A3E50986
:10070D00F0908025E0FF04F08F90E075F00384FFFA
:10071D00121A09908020E0FEA3E0FFC3E5099FFFB8
:10072D00E5089EFEC3EF94D0EE94075003020947EF
:10073D00908020E508F0A3E509F07B017A80791817
:0B074D007F0112184BEF600302093C13
:10075800908018E0FEA3E0FF1212B790801C1206EA
:100768004390801CE0FCA3E0FDA3E0FEA3E0FF12A1
:100778000466908026EEF0A3EFF0908026E0FCA3BC
:10078800E0FDECFF3395E0EF908051F0EDA3F07BB6
:10079800017A807951908063E4F0A37402F07F209D
:1007A8007E107D007C00120B9C7BFF7A1479F97D0A
:1007B800091218E9908018E0FEA3E0FF7C277D105D
:1007C80012055FEF2430FF121AC3908018E0FEA3D1
:1007D800E0FF7C277D1012055F7E037FE8CFCDCF39
:1007E800CECCCE12055FEF2430FF121AC3908018CA
:1007F800E0FEA3E0FF7C037DE812055F7E007F64D6
:10080800CFCDCFCECCCE12055FEF2430FF121AC366
:10081800908018E0FEA3E0FF7C007D6412055F7EF7
:10082800007F0ACFCDCFCECCCE12055FEF2430FFAC
:10083800121AC3908018E0FEA3E0FF7C007D0A1224
:10084800055FED2430FF121AC37BFF7A1579037D0B
:10085800091218E9E4FFFEFDFC90801CE0F8A3E013
:10086800F9A3E0FAA3E0FB12039E501C7F2D121A95
:10087800C390801CE0FCA3E0FDA3E0FEA3E0FF1210
:10088800041790801C12064390801CE0FCA3E0FD36
:10089800A3E0FEA3E0FF1204667C007D0A12055F58
:1008A800EF2430FF121AC390801CE0FCA3E0FDA3E4
:1008B800E0FEA3E0FF1204667C007D0A12055FEDEE
:1008C8002430FF121AC37F2E121AC3E4FFFE7DC81C
:1008D8007C4290801CE0F8A3E0F9A3E0FAA3E0FBD7
:1008E8001201F81204667C007D6412055F7E007FA9
:1008F8000ACFCDCFCECCCE12055FEF2430FF121A2F
:10090800C3E4FFFE7DC87C4290801CE0F8A3E0F9B8
:10091800A3E0FAA3E0FB1201F81204667C007D0A4A
:1009280012055FED2430FF121AC37BFF7A15790D8B
:020938007D043C
:10093A0080087BFF7A1579127D0B1218E990805096
:09094A00E0FF90804FE06F60783F
:10095300908050E0242FF582E43480F583E090808A
:1009630051F0908050E004541FF0908051E0FFC399
:0A09730094304049EFD3943950430B
:10097D00EF24D0FEE434FFA3F0A3CEF07B017A8008
:10098D007952908063E4F0A37402F07F407E207D65
:10099D00007C00120B9C7BFF7A15791E7D101218BE
:1009AD00E9908051E0FF121AC37BFF7A15792F7DF4
:0109BD000237
:0D09BE0080087BFF7A1579327D0E1218E952
:1009CB007B017A80792390805EE4F0A37402F07F40
:1009DB00007E127D007C00120E14908023E07004C8
:1009EB00A3E064016003020A88908012E004F070B7
:1009FB0006908011E004F07BFF7A1579417D1C1283
:100A0B0018E9908011E0FEA3E0FF7C007D641205E5
:100A1B005F7C007D0A12055FED2430FF121AC39034
:100A2B008011E0FEA3E0FF7C007D0A12055F7C00D5
:100A3B007D0A12055FED2430FF121AC3908011E07E
:100A4B00FEA3E0FF7C007D0A12055FED2430FF1250
:100A5B001AC37BFF7A15795E7D031218E9E4908047
:100A6B0023F0A3F07B017A807923908063F0A37449
:100A7B0002F07F007E127D007C00120B9C7B017AC2
:100A8B0080792890805EE4F0A37407F07F167E00D7
:100A9B007D007C00120E14908029E0908015F0FDF3
:100AAB0090802AE0FEA3E0FBEBFF908016EEF0A314
:100ABB00EFF090802CE0FEA3E0FBEBFF90801AEEB2
:100ACB00F0A3EFF0ED64036003020B7FD39080176C
:100ADB00E0943C908016E094004003020B7F9080E2
:100AEB001BE0943C90801AE094004003020B7F9033
:100AFB008022E07017AE08AF09FCFD90800C120647
:100B0B00439080227401F0E4908010F0908022E0FA
:100B1B00640160030206E4908010E060030206E4C7
:100B2B0090800CA3A3E0FEA3E0FFC3E5099FFFE5C4
:0F0B3B00089EFEC3EF9488EE941350030206E465
:100B4A00908051E4F0A304F0FB7A8079519080639D
:100B5A00E4F0A37402F07F507E107D007C00120B3B
:100B6A009C7BFF7A1579627D181218E990801074BF
:020B7A0001F088
:100B7C000206E4E4908022F090800C12064F0000F4
:0A0B8C000000E4908010F00206E47F
:030000000213AB3D
:0800F800FFFF4457494E543547
:1013AB00759401759502758E0075930075C87075EF
:1013BB00C96075F800787FE4F6D8FD7581200214BA
:0113CB00071A
:101A2A000003030601040602050003051F1C1F1E0E
:0E1A3A001F1E1F1F1E1F1E1F1305010C000084
:10165E0002080000020A0000020C000042806E0028
:10166E00004E80700000000000000000000000002E
:02167E0000006A
:1017DE00C2AFC2D3C2D4E4F58EF59375940175955C
:1017EE000253C9FD75F901F5A8F5B8F59AF5A9F5F5
:1017FE00B97580FF7590FF75A0FF75B0FF75B710B6
:10180E00F5BCF5BDF5BE75D88075985075BA0375E3
:10181E00AAE4759680759780F5D975D7E07589110C
:10182E00F58CF58AC28CF58DF58BC28E7588057593
:0D183E00C870F5CDF5CC75CBBC75CACD22B8
:0A1ADA0043B70275BCFF43BD0322B1
:1019A800901A42E49390807EF0901A43E4939080DA
:1019B8007FF0901A44E493908080F0901A45E49365
:1019C800908082F0901A46E493908083F0901A47B2
:0719D800E493908084F022EB
:101AA300438901758CBC758ACDD2A9D2AFD28C2261
:101AB300438910758DBC758BCDD2ABD2AFD28E223C
:101A7C0075C870E4F5CDF5CC75CBDE75CA6643A898
:041A8C0020D2C8227A
:03002B00021AE4D2
:051AE400C2C6B2A032F1
:060B96007E207D007C00C2
:060B9C0090805C1206438C
:100BA200908065EBF0A3EAF0A3E9F090805CE0FCB2
:100BB200A3E0FDA3E0FEA3E0FF780112060490800B
:100BC2006812064390805CA3A3A3E05401FFAB0725
:100BD200C2AF908068E0FCA3E0FDA3E0FEA3E0FFCB
:100BE20078101206048FF1908068E0FCA3E0FDA368
:100BF200E0FEA3E0FF78081206048FF2908068A35B
:100C0200A3A3E0F5F375F401AF03EF7003020CFC4C
:100C1200908063E0FEA3E0FFD39400EE94005003C3
:100C2200020CFCE4F5F490806CF0D3EF9400EE94A7
:100C320000402A908065E0FBA3E475F0011205CA2A
:100C4200A9F0FA120534F5FC90806CE04402F090B1
:100C52008064E024FFF0908063E034FFF0D3908062
:100C620064E09400908063E09400402A908065E004
:100C7200FBA3E475F0011205CAA9F0FA120534F5D6
:100C8200FD90806CE04401F0908064E024FFF090DD
:100C92008063E034FFF090806CE060094480F5F8F6
:100CA200D2FE20FEFD908068E0FCA3E0FDA3E0FE02
:100CB200A3E02401FFE43EFEE43DFDE43CFC908021
:100CC20068120643908068E0FCA3E0FDA3E0FEA367
:100CD200E0FF78101206048FF1908068E0FCA3E038
:100CE200FDA3E0FEA3E0FF78081206048FF29080D5
:100CF20068A3A3A3E0F5F375F401908063E0FEA37B
:100D0200E0FFC39404EE9400406A75F88FA3E0FB01
:100D1200A3E475F0011205CAA9F0FA120534F5FA36
:100D2200908065E0FBA3E475F0011205CAA9F0FA10
:100D3200120534F5FB908065E0FBA3E475F0011227
:100D420005CAA9F0FA120534F5FC908065E0FBA310
:100D5200E475F0011205CAA9F0FA120534F5FDD2C4
:100D6200FE20FEFD908064E024FCF0908063E0347D
:100D7200FFF08086D3EF9400EE94005003020E0E33
:100D8200E490806CF0D3908064E09400908063E003
:100D92009400401C908065E0FBA3E475F00112050D
:100DA200CAA9F0FA120534F5FA90806CE04408F012
:100DB200908063E0FCA3E0FDD39401EC9400401A20
:100DC200A3E0FBA3E475F0011205CAA9F0FA12052B
:100DD20034F5FB90806CE04404F0D3ED9402EC9483
:100DE20000401C908065E0FBA3E475F0011205CA87
:100DF200A9F0FA120534F5FC90806CE04402F09000
:100E0200806CE04480F5F8D2FE20FEFDE4F5F8D2D5
:010E1200AF30
:010E130022BC
:060E140090805712064316
:100E1A00908060EBF0A3EAF0A3E9F0908057E0FC41
:100E2A00A3E0FDA3E0FEA3E0FF7801120604908090
:100E3A0063120643908057A3A3A3E05401FFAB07B4
:100E4A00C2AF908063E0FCA3E0FDA3E0FEA3E0FF55
:100E5A0078101206048FF1908063E0FCA3E0FDA3F2
:100E6A00E0FEA3E0FF78081206048FF2908063A3E5
:100E7A00A3A3E0F5F375F401AF03EF7003020F606B
:100E8A00D390805FE0940090805EE094005003026B
:100E9A000F60E4F5F475F8AFD2FE20FEFDD3908022
:100EAA005FE0940090805EE094004023908060E0D0
:100EBA00FBA3E475F0011205CAA9F0FAE5FC1205D4
:100ECA004D90805FE024FFF090805EE034FFF0D325
:100EDA0090805FE0940090805EE0940040239080D0
:100EEA0060E0FBA3E475F0011205CAA9F0FAE5FD7A
:100EFA0012054D90805FE024FFF090805EE034FFA1
:100F0A00F0908063E0FCA3E0FDA3E0FEA3E02401EF
:100F1A00FFE43EFEE43DFDE43CFC908063120643A0
:100F2A00908063E0FCA3E0FDA3E0FEA3E0FF78105D
:100F3A001206048FF1908063E0FCA3E0FDA3E0FEBB
:100F4A00A3E0FF78081206048FF2908063A3A3A39C
:100F5A00E0F5F375F40190805EE0FEA3E0FFC39430
:100F6A0004EE9400406C75F8AFD2FE20FEFD90802E
:100F7A0060E0FBA3E475F0011205CAA9F0FAE5FAEC
:100F8A0012054D908060E0FBA3E475F0011205CADA
:100F9A00A9F0FAE5FB12054D908060E0FBA3E47529
:100FAA00F0011205CAA9F0FAE5FC12054D9080601D
:100FBA00E0FBA3E475F0011205CAA9F0FAE5FD12F7
:100FCA00054D90805FE024FCF090805EE034FFF0F5
:100FDA008084D3EF9400EE9400407475F8AFD2FE8B
:100FEA0020FEFDD390805FE0940090805EE0940044
:100FFA004015908060E0FBA3E475F0011205CAA9D0
:10100A00F0FAE5FA12054DD390805FE094019080E2
:10101A005EE094004015908060E0FBA3E475F00167
:10102A001205CAA9F0FAE5FB12054DD390805FE0DC
:10103A00940290805EE094004015908060E0FBA3EB
:10104A00E475F0011205CAA9F0FAE5FC12054DE4AF
:04105A00F5F8D2AF24
:01105E00226F
:03000B000219DFF8
:1019DF00C0E0C0D0758CBC758ACD0509E5097002D1
:1019EF000508D3E50D9400E50C94004008E50D15AE
:0A19FF000D7002150CD0D0D0E032BC
:08144C0090805AEDF0A3EBF0D3
:10145400EF24D0FFE43407AB07FA7C007D64FE126E
:10146400055FA3EFF0AE02AF037C007D6412055F5D
:10147400A3EDF090805CE0D39413748094804005D5
:10148400A3E02464F090805DE0FF1313543FFDEF6C
:101494002DFFE433FE7C007D0712055FAE04AF052B
:1014A40090805BE02FFFE43EFE90805AE0F9901AB2
:1014B40029937C002FFFEC3EFE90805DE054037086
:1014C4000FE9C39403748094805005EF1F70011ECC
:1014D4007C007D0712055FAE04AF05EF4E70037FFD
:0514E4000622EF14FFD9
:0114E90022E0
:10157B0043C90190806EE07004A3E06401707B901E
:10158B00807EE0FFA3E0FDA3E0FB12144C90808172
:10159B00EFF0A3E0FF908054E4F0A3EFF090808392
:1015AB00E0FF908056E4F0A3EFF0908084E0FF9092
:1015BB008058E4F0A3EFF07B017A8079549080633C
:1015CB00E4F0A37402F07F10120B967B017A807902
:1015DB0056908063E4F0A37402F07F20120B967B8D
:1015EB00017A807958908063E4F0A37402F07F3025
:0A15FB00120B96E490806EF0A3F04E
:0116050022C2
:03001B000216FFCB
:1016FF00C0E0C083C082C0D0758DBC758BCD050B8B
:10170F00E50B7002050AC394E8E50A9403404A7595
:10171F000A00750B00908084E004F0E0D3943B74D2
:10172F00809480402CE4F0908083E004F0E0D39428
:10173F003B74809480401AE4F0908082E004F0E0E3
:10174F00D39417748094804008E4F0908080E00474
:10175F00F090806EE4F0A304F0D0D0D082D083D08C
:02176F00E03266
:0B1ACF008E0C8F0DE50D450C70FA2207
:10168900908093E4F0A37480F0E4908086F09080D9
:1016990086E0FDC39408748094805059A3745AF06D
:1016A900A37402F0EDFF7E00908093E0FAA3E0FBC3
:1016B9002FEE3A908089F0ED2BA3F0A37410F0E49B
:1016C900A3F0A3F0A37464F0E4A3F0A3F0A3F0A340
:1016D900F07B017A807987908063F0A3740CF07FA6
:1016E900AA7E00120B987FC87E00121ACF908086BE
:0516F900E004F08099FF
:0116FE0022C9
:0816800041804F004180500041
:101A900075A78075AB80E4F5AE75AFE0D2BDC281AD
:031AA000D2AF22A0
:0C1AC3008FACE5A7540160FA53A7FE2287
:1018E900908054EBF0A3EAF0A3E9F0908054E0FB78
:1018F900A3E0FAA3E04A4B602BED6028D281AF0543
:101909001DEF601E908054E0FBA3E0FAA3E0F912FA
:101919000534FF121AC3908055E475F0011205B41D
:0519290080DCC28122F8
:0300730002192E41
:10192E00C0E0C083C082C0D075D000C007E5AB5404
:05193E000164017022AC
:1019430090806DE5ADF0E0FF90804FE0242FF582AD
:10195300E43480F583EFF090804FE004541FF0539C
:02196300ABFED9
:0B196500D007D0D0D082D083D0E03279
:0B184B00908054EBF0A3EAF0A3E9F05A
:10185600EFD3940774809480500E908054E0FBA3DD
:10186600E0FAA3E04A4B70037F01227E007C007DF4
:1018760002120680EF2432FFE43EFEE43DFDE43C26
:10188600FC908054E0FBA3E0FAA3E0F990805EE4CC
:0A189600F0A37402F0120E147F009C
:0118A0002225
:101A0900908054EFF07B017A807954908063E4F000
:101A1900A304F07F827E007D007C00120B9C7F0076
:011A2900229A
:051AE9007F32021A0922
:101A48007B017A80799D908063E4F0A37408F07F2D
:0D1A5800107E007D007C00120B9C7F0022A0
:101A650090805EE4F0A37408F07F107E007D007C1A
:071A750000120E147F002295
:100100000204D2E86480F8E933E83360110460F057
:10011000ED33EC337009E8FCE9FDEAFEEBFF220465
:1001200060DED3EB9FEA9EE99DE8C2E78CF0C2F760
:1001300095F0400CE8CCF8E9CDF9EACEFAEBCFFB2C
:1001400012049D85D0F05804700320D5B3E80470E4
:10015000075002B2D50204DC92D5EC0460F7E4CC7F
:10016000C0E0C398F8603B94186008400DD0E0FBF5
:100170000204B4E4FBFAC9FC8028E830E406E4C9D0
:10018000FBE4CAFCE830E305E4C9CACBFCE8540749
:100190006010F8C3E913F9EA13FAEB13FBEC13FC54
:1001A000D8F130F52FC3E49CFCEF9BFFEE9AFEEDF7
:1001B00099FDD0E0FBEF4E4D4C701222DB030204A0
:1001C000D9EC2CFCEF33FFEE33FEED33FDED30E7E1
:1001D000EB0204B4EF2BFFEE3AFEED39FDD0E0FB6D
:1001E00050130BBB00030204DCED13FDEE13FEEF16
:0801F00013FFEC13FC0204B440
:1001F800EC4D6011E8497017ED33EC3304600DE401
:10020800FCFFFEFD22E933E8330470F80204D21241
:10021800049D58046009E4CC248150062850090242
:1002280004DC2840030204D9C0E0EB4A7044B980DA
:1002380006D0E0FB0204C8EF4E701CBD8008EBFF3F
:10024800EAFEE9FD80EBE98DF0A4FEE5F00202E1AB
:10025800E9CDF9EAFEEBFFEF89F0A4FCE5F0CE89E1
:10026800F0A42EFFE435F0CD89F0A42DFEE435F09E
:100278008067EF4E7005BD80D780C3EF8BF0A4ACCC
:10028800F0EE8BF0A42CFCE435F0F8EF8AF0A42C07
:10029800E5F038FCE433CB8DF0A42CFCE5F03BF81A
:1002A800EE8AF0A42CFCE5F038F8E433CF89F0A40A
:1002B8002CFCE5F038CF3400CE89F0A42FFFE5F010
:1002C8003EFEE433C98DF0A42EFEE5F039CD8AF068
:1002D800A42FFFE5F03EFEE43DFD33D0E0FB5007E0
:1002E8000BBB000F0204DCEC2CFCEF33FFEE33FEFB
:0602F800ED33FD0204B429
:1002FE000204DCEC5D046005E8590470030204D2CC
:10030E0012049D580460F6EC4860F2EC7004FDFE99
:10031E00FF22C860DB2481C85009C39860025006D2
:10032E000204D99850CAF582E9294B4A7005AB826E
:10033E000204C875F0007C1A7880C3EF9BEE9AED2C
:10034E0099400DC3EF9BFFEE9AFEED99FDE842F04A
:10035E00DC23ACF0D0E0FFD0E0FED0E0FDAB82209D
:10036E00E7101BEB60BAEC2CFCEF33FFEE33FEED27
:10037E0033FD0204B4E803F830E705C0F075F00071
:10038E00EF2FFFEE33FEED33FD40B830E7C280AA0B
:10039E0074F8CC6480CCC86480C8F58204604FC306
:1003AE00EB9FF5F0EA9E42F0E99D42F0E89C45F0A5
:1003BE00603C501DE5825FFFE582D313CB5BCBF42F
:1003CE002B5582FB50280ABA002409B90020088058
:1003DE001DE5825BFBE582D313CF5FCFF4C3132FF2
:1003EE005582FF50090EBE00050DBD00010CC3EB7A
:1003FE009FF5F0EA9E42F0E99D42F0E89C45F060E0
:09040E0007CC4820E701B3EC2201
:10041700ED33EC33600A047003BD8004ECB2E7FCF3
:0104270022B2
:1004280075F020800E75F010800575F0087D007E4F
:10043800007F003392D530D5031205E0EC3340102D
:10044800EF33FFEE33FEED33FDEC33FCD5F0ED2258
:0E045800E5F0247EA2D513CC92E7CDCEFF2294
:10046600EDD2E7CD33EC3392D524814006E4FFFE8E
:10047600FDFC22FCE4CFCECDCC24E0501174FF80ED
:10048600EDC3CC13CCCD13CDCE13CECF13CF04708A
:07049600F030D5DE0205E0A5
:10118E003E9248DA3ECCCCCD3F2AAAAB40000000BE
:10119E003F8000003F9837F03FB504F33FD744FC43
:1011AE003E3172173EB172173F0515913EDE5BD987
:1011BE00D2018002C201EDD2E7F8CD33EC330470D8
:1011CE000BBD800592D50204DC0204D240FBD31481
:1011DE0060F2F5F07C3FEE7A00C39496C8948B4093
:1011EE00230AC89469C8941A401A0AC89468C89405
:1011FE001F40110AC8945AC89425400805F07A0079
:10120E00CDC2E7CDC0F090805E120643EA2323C024
:10121E00E0249EF582E43411F583120633120107A1
:10122E00ECC0E0EDC0E0EEC0E0EFC0E012061790BB
:10123E00805E120627120103D0E0FBD0E0FAD0E068
:10124E00F9D0E0B2E7F812030190805E12064390E7
:10125E00118E74031204E790805E1206271201F8B5
:10126E00D0E0600F24AAF582E43411F58312063320
:10127E0012010790805E120643D0E0C3947FFDE416
:10128E009400FC12042D7B187A727931783F12018A
:10129E00F890805E12062712010730010B7BD97A77
:0912AE005B79DE783E1201F822A2
:10049D00E9D2E7C933E833F892D5EDD2E7CD33ECA5
:0704AD0033FC5002B2D5221E
:1004B400EC30E7100FBF000C0EBE00080DBD0004A9
:1004C4000BEB6014A2D5EB13FCED92E7FD2274FF55
:1004D400FCFDFEFF22E480F8A2D574FF13FC7D80AE
:0304E400E480EFC2
:1004E700C0E0EFFBEEFAEDF9ECF81201F8D0E0F519
:1004F700F0EFFBEEFAEDF9ECF8120617A3A3A3A3AE
:10050700E8C0E0E9C0E0EAC0E0EBC0E0C0F01201FB
:10051700F8120633A3A3A3A3120107D0F0D0E0FB80
:0D052700D0E0FAD0E0F9D0E0F8D5F0D42211
:1013CC000206ADE493A3F8E493A34003F68001F284
:1013DC0008DFF48029E493A3F85407240CC8C33322
:1013EC00C4540F4420C8834004F456800146F6DFF1
:1013FC00E4800B0102040810204080901606E47E65
:10140C00019360BCA3FF543F30E509541FFEE493E5
:10141C00A360010ECF54C025E060A840B8E493A3AC
:10142C00FAE493A3F8E493A3C8C582C8CAC583CAD7
:10143C00F0A3C8C582C8CAC583CADFE9DEE780BE8F
:011688000061
:10053400BB010689828A83E0225002E722BBFE02C5
:09054400E32289828A83E49322F8
:10054D00BB010689828A83F0225002F722BBFE018D
:02055D00F32287
:10055F00BC000BBE0029EF8DF084FFADF022E4CC80
:10056F00F875F008EF2FFFEE33FEEC33FCEE9DEC49
:10057F00984005FCEE9DFE0FD5F0E9E4CEFD22ED8F
:10058F00F8F5F0EE8420D21CFEADF075F008EF2FD9
:10059F00FFED33FD4007985006D5F0F222C398FDCA
:0505AF000FD5F0EA2267
:1005B400C5F0F8A3E028F0C5F0F8E58215827002D2
:0605C4001583E038F0226F
:1005CA00A3F8E0C5F025F0F0E582158270021583E4
:0605DA00E0C838F0E82241
:0E05E000C3E49FFFE49EFEE49DFDE49CFC222C
:1005EE00EB9FF5F0EA9E42F0E99D42F0EC6480C884
:0605FE0064809845F02224
:10060400E8600FECC313FCED13FDEE13FEEF13FFD4
:03061400D8F122F8
:10061700E493FC740193FD740293FE740393FF2229
:0C062700E0F8A3E0F9A3E0FAA3E0FB2256
:10063300E493F8740193F9740293FA740393FB221D
:0C064300ECF0A3EDF0A3EEF0A3EFF0222A
:10064F00A8828583F0D083D08212066612066612C6
:10065F000666120666E473E493A3C583C5F0C583EB
:10066F00C8C582C8F0A3C583C5F0C583C8C582C8F5
:01067F002258
:10068000EC8EF0A4CCC5F0CCCDF8EFA4CEC5F02D07
:10069000FDE43CFCE8A42EC8C5F03DFDE43CFCEFC5
:0D06A000A4FFE5F028FEE43DFDE43CFC2253
:00000001FF
