:1009250044656D6F20537461727465640D0A0054DB
:10093500696D653A20000D0A007772697474656EF9
:10094500206E756D6265723A20006F7574206F6652
:10095500206C696D69740D0A005661726961626C7B
:10096500652075706461746564205B6E65772076BB
:0A097500616C75653A005D0D0A0023
:0F0A060042805500004280590000428057000096
:100100001208C5120AD2120AE2120ABF120A4012DB
:100110000AFE7BFF7A0979257D0E12097F908057B0
:10012000E508F0A3E509F01207C8908057E0FEA3A8
:10013000E0FFC3E5099FFFE5089EFEC3EF9488EE4C
:10014000941350030201CB908057E508F0A3E50912
:10015000F07BFF7A0979347D0612097F908051E0A7
:1001600075F00A842430FF120AF2908051E075F095
:100170000A84E5F02430FF120AF27F3A120AF29064
:100180008052E075F00A842430FF120AF290805207
:10019000E075F00A84E5F02430FF120AF27F3A128B
:1001A0000AF2908053E075F00A842430FF120AF2BC
:1001B000908053E075F00A84E5F02430FF120AF2D3
:1001C0007BFF7A09793B7D0212097F908021E0FF55
:0701D000908020E06F6078D1
:1001D700908021E02400F582E43480F583E090806C
:1001E70022F0908021E004541FF0908022E0FFC3AA
:0A01F70094304049EFD3943950438F
:10020100EF24D0FEE434FFA3F0A3CEF07B017A808B
:100211007923908032E4F0A37402F07F407E207D48
:10022100007C001203157BFF7A09793E7D101209CB
:100231007F908022E0FF120AF27BFF7A09793B7DF1
:0102410002BA
:0D02420080087BFF7A09794F7D0E12097F3D
:10024F007B017A80795990802CE4F0A37402F07FBF
:10025F00007E127D007C0012047B908059E07004B8
:10026F00A3E064016003020127908056E004F07060
:10027F0006908055E004F07BFF7A09795E7D1C12B1
:10028F00097F908055E0FEA3E0FF7C007D6412059E
:10029F00E97C007D0A1205E9ED2430FF120AF29085
:1002AF008055E0FEA3E0FF7C007D0A1205E97C008B
:1002BF007D0A1205E9ED2430FF120AF2908055E015
:1002CF00FEA3E0FF7C007D0A1205E9ED2430FF124A
:1002DF000AF27BFF7A09797B7D0312097FE4908014
:1002EF0059F0A3F07B017A807959908032F0A37492
:1002FF0002F07F007E127D007C00120315020127A1
:030000000206896C
:0800F800FFFF4457494E543547
:10068900759401759502758E0075930075C870751E
:10069900C96075F800787FE4F6D8FD75810D02060A
:0106A900E56B
:100AA1000003030601040602050003051F1C1F1EA7
:0E0AB1001F1E1F1F1E1F1E1F1305010C00001D
:100A150002080000020A0000020C000042803D00AE
:100A2500004E803F000000000000000000000000B4
:020A35000000BF
:1008C500C2AFC2D3C2D475F901E4F5A8F5B8F59A5B
:1008D500F5A9F5B953C9FD7580FF7590FF75A0FFA2
:1008E50075B0FF75B710F5BCF5BDF5BE75D880754B
:1008F500985075BA0375AAE4759680759780F5D9F1
:1009050075D7E0758911F58CF58AC28CF58DF58B57
:10091500C28E75C870F5CDF5CC75CBBC75CACD2228
:0A0AFE0043B70243BC1E43BD0222B1
:100A4000900AB9E49390804DF0900ABAE4939080B4
:100A50004EF0900ABBE49390804FF0900ABCE49370
:100A6000908051F0900ABDE493908052F0900ABEBD
:070A7000E493908053F02293
:100AD200438901758CBC758ACDD2A9D2AFD28C2242
:100AE200438910758DBC758BCDD2ABD2AFD28E221D
:06030F007E207D007C0051
:0603150090802B12067D12
:10031B00908034EBF0A3EAF0A3E9F090802BE0FCA3
:10032B00A3E0FDA3E0FEA3E0FF780112066A908034
:10033B003712067D90802BA3A3A3E05401FFE4ABFF
:10034B000790803BF0908037E0FCA3E0FDA3E0FE3C
:10035B00A3E0FF781012066A8FF1908037E0FCA3C0
:10036B00E0FDA3E0FEA3E0FF780812066A8FF2908F
:10037B008037A3A3A3E0F5F3E4F5F4AF03EF600339
:10038B00020419908032E0FCA3E0FDD39400EC94BE
:10039B0000401AA3E0FBA3E475F001120654A9F088
:1003AB00FA1205BEF5FA90803BE04408F0D3ED94C9
:1003BB0001EC9400401C908034E0FBA3E475F00149
:1003CB00120654A9F0FA1205BEF5FB90803BE044EF
:1003DB0004F0D3908033E09402908032E09400409C
:1003EB001C908034E0FBA3E475F001120654A9F0D5
:1003FB00FA1205BEF5FC90803BE04402F0D39080EE
:10040B0033E09403908032E094004051803390802D
:10041B0032E0FCA3E0FDD39400EC9400401AA3E07F
:10042B00FBA3E475F001120654A9F0FA1205BEF510
:10043B00FC90803BE04402F0D3ED9401EC9400403F
:10044B001C908034E0FBA3E475F001120654A9F074
:10045B00FA1205BEF5FD90803BE04401F090803B25
:0F046B00E0600C4480F5F8D2FE20FEFDE4F5F8C9
:01047A00225F
:06047B0090802512067DB1
:1004810090802EEBF0A3EAF0A3E9F0908025E0FC48
:10049100A3E0FDA3E0FEA3E0FF780112066A9080CD
:1004A1003112067D908025A3A3A3E05401FFAB0781
:1004B100908031E0FCA3E0FDA3E0FEA3E0FF781013
:1004C10012066A8FF1908031E0FCA3E0FDA3E0FE0B
:1004D100A3E0FF780812066A8FF2908031A3A3A3EC
:1004E100E0F5F3E4F5F475F8AFD2FE20FEFDEB6024
:1004F10003020572D390802DE0940090802CE0944B
:1005010000401590802EE0FBA3E475F00112065423
:10051100A9F0FAE5FA1205D7D390802DE094019065
:10052100802CE09400401590802EE0FBA3E475F050
:1005310001120654A9F0FAE5FB1205D7D390802DDC
:10054100E0940290802CE09400401590802EE0FB16
:10055100A3E475F001120654A9F0FAE5FC1205D7DF
:10056100D390802DE0940390802CE09400404A8049
:1005710033D390802DE0940090802CE094004015BE
:1005810090802EE0FBA3E475F001120654A9F0FA65
:10059100E5FC1205D7D390802DE0940190802CE0EA
:1005A1009400401590802EE0FBA3E475F001120643
:0C05B10054A9F0FAE5FD1205D7E4F5F8B6
:0105BD00221B
:03000B00020A776F
:100A7700C0E0C0D0758CBC758ACD0509E509700248
:100A87000508D3E50D9400E50C94004008E50D1525
:0A0A97000D7002150CD0D0D0E03233
:08072A0090802BEDF0A3EBF031
:10073200EF24D0FFE43407AB07FA7C007D64FE129D
:1007420005E9A3EFF0AE02AF037C007D641205E978
:10075200A3EDF090802DE0D3941374809480400533
:10076200A3E02464F090802EE0FF1313543FFDEFCA
:100772002DFFE433FE7C007D071205E9AE04AF05D0
:1007820090802CE02FFFE43EFE90802BE0F9900A4F
:10079200A0937C002FFFEC3EFE90802EE05403706D
:1007A2000FE9C39403748094805005EF1F70011EFB
:1007B2007C007D071205E9AE04AF05EF4E70037FA2
:0507C2000622EF14FF08
:0107C700220F
:1007C80043C90190803DE07004A3E06401707B9010
:1007D800804DE0FFA3E0FDA3E0FB12072A908050C4
:1007E800EFF0A3E0FF908025E4F0A3EFF0908052B3
:1007F800E0FF908027E4F0A3EFF0908053E0FF90B3
:100808008029E4F0A3EFF07B017A8079259080328B
:10081800E4F0A37402F07F1012030F7B017A807951
:1008280027908032E4F0A37402F07F2012030F7B3C
:10083800017A807929908032E4F0A37402F07F3045
:0A08480012030FE490803DF0A3F0CE
:010852002283
:03001B0002085385
:10085300C0E0C083C082C0D0758DBC758BCD050B45
:10086300E50B7002050AC394E8E50A9403404A7550
:100873000A00750B00908053E004F0E0D3943B74BE
:10088300809480402CE4F0908052E004F0E0D39414
:100893003B74809480401AE4F0908051E004F0E0CF
:1008A300D39417748094804008E4F090804FE00460
:1008B300F090803DE4F0A304F0D0D0D082D083D078
:0208C300E03221
:080A37004180200041802100F4
:100ABF0075A78075AB80E4F5AE75AFE0D2BDC2818E
:030ACF00D2AF2281
:0C0AF2008FACE5A7540160FA53A7FE2268
:10097F00908025EBF0A3EAF0A3E9F0908025E0FB4F
:10098F00A3E0FAA3E04A4B602BED6028D281AF05BC
:10099F001DEF601E908025E0FBA3E0FAA3E0F912A3
:1009AF0005BEFF120AF2908026E475F00112063E92
:0509BF0080DCC2812272
:030073000209C4BB
:1009C400C0E0C083C082C0D075D000C007E5AB547E
:0509D400016401702226
:1009D90090803CE5ADF0E0FF908020E02400F582B6
:1009E900E43480F583EFF0908020E004541FF05345
:0209F900ABFE53
:0B09FB00D007D0D0D082D083D0E032F3
:1006AA00020100E493A3F8E493A34003F68001F265
:1006BA0008DFF48029E493A3F85407240CC8C33351
:1006CA00C4540F4420C8834004F456800146F6DF20
:1006DA00E4800B0102040810204080900A06E47EA0
:1006EA00019360BCA3FF543F30E509541FFEE49315
:1006FA00A360010ECF54C025E060A840B8E493A3DC
:10070A00FAE493A3F8E493A3C8C582C8CAC583CA06
:10071A00F0A3C8C582C8CAC583CADFE9DEE780BEBE
:010A3F0000B6
:1005BE00BB010689828A83E0225002E722BBFE023B
:0905CE00E32289828A83E493226E
:1005D700BB010689828A83F0225002F722BBFE0103
:0205E700F322FD
:1005E900BC000BBE0029EF8DF084FFADF022E4CCF6
:1005F900F875F008EF2FFFEE33FEEC33FCEE9DECBF
:10060900984005FCEE9DFE0FD5F0E9E4CEFD22ED04
:10061900F8F5F0EE8420D21CFEADF075F008EF2F4E
:10062900FFED33FD4007985006D5F0F222C398FD3F
:050639000FD5F0EA22DC
:10063E00C5F0F8A3E028F0C5F0F8E5821582700247
:06064E001583E038F022E4
:10065400A3F8E0C5F025F0F0E58215827002158359
:06066400E0C838F0E822B6
:10066A00E8600FECC313FCED13FDEE13FEEF13FF6E
:03067A00D8F12292
:0C067D00ECF0A3EDF0A3EEF0A3EFF022F0
:00000001FF
